{
  "_format": "hh-sol-artifact-1",
  "contractName": "FunderMarket",
  "sourceName": "contracts/Funder.sol",
  "abi": [
    {
      "inputs": [],
      "stateMutability": "nonpayable",
      "type": "constructor"
    },
    {
      "anonymous": false,
      "inputs": [
        {
          "indexed": true,
          "internalType": "address",
          "name": "owner",
          "type": "address"
        },
        {
          "indexed": true,
          "internalType": "address",
          "name": "approved",
          "type": "address"
        },
        {
          "indexed": true,
          "internalType": "uint256",
          "name": "tokenId",
          "type": "uint256"
        }
      ],
      "name": "Approval",
      "type": "event"
    },
    {
      "anonymous": false,
      "inputs": [
        {
          "indexed": true,
          "internalType": "address",
          "name": "owner",
          "type": "address"
        },
        {
          "indexed": true,
          "internalType": "address",
          "name": "operator",
          "type": "address"
        },
        {
          "indexed": false,
          "internalType": "bool",
          "name": "approved",
          "type": "bool"
        }
      ],
      "name": "ApprovalForAll",
      "type": "event"
    },
    {
      "anonymous": false,
      "inputs": [
        {
          "indexed": true,
          "internalType": "uint256",
          "name": "tokenId",
          "type": "uint256"
        },
        {
          "indexed": false,
          "internalType": "address",
          "name": "seller",
          "type": "address"
        },
        {
          "indexed": false,
          "internalType": "address",
          "name": "owner",
          "type": "address"
        },
        {
          "indexed": false,
          "internalType": "uint256",
          "name": "price",
          "type": "uint256"
        },
        {
          "indexed": false,
          "internalType": "bool",
          "name": "sold",
          "type": "bool"
        }
      ],
      "name": "ProjectMarketCreated",
      "type": "event"
    },
    {
      "anonymous": false,
      "inputs": [
        {
          "indexed": true,
          "internalType": "address",
          "name": "from",
          "type": "address"
        },
        {
          "indexed": true,
          "internalType": "address",
          "name": "to",
          "type": "address"
        },
        {
          "indexed": true,
          "internalType": "uint256",
          "name": "tokenId",
          "type": "uint256"
        }
      ],
      "name": "Transfer",
      "type": "event"
    },
    {
      "inputs": [
        {
          "internalType": "address",
          "name": "to",
          "type": "address"
        },
        {
          "internalType": "uint256",
          "name": "tokenId",
          "type": "uint256"
        }
      ],
      "name": "approve",
      "outputs": [],
      "stateMutability": "nonpayable",
      "type": "function"
    },
    {
      "inputs": [
        {
          "internalType": "address",
          "name": "owner",
          "type": "address"
        }
      ],
      "name": "balanceOf",
      "outputs": [
        {
          "internalType": "uint256",
          "name": "",
          "type": "uint256"
        }
      ],
      "stateMutability": "view",
      "type": "function"
    },
    {
      "inputs": [
        {
          "internalType": "string",
          "name": "tokenURI",
          "type": "string"
        },
        {
          "internalType": "uint256",
          "name": "price",
          "type": "uint256"
        }
      ],
      "name": "createProject",
      "outputs": [
        {
          "internalType": "uint256",
          "name": "",
          "type": "uint256"
        }
      ],
      "stateMutability": "payable",
      "type": "function"
    },
    {
      "inputs": [
        {
          "internalType": "uint256",
          "name": "_tokenId",
          "type": "uint256"
        }
      ],
      "name": "fundProject",
      "outputs": [],
      "stateMutability": "payable",
      "type": "function"
    },
    {
      "inputs": [
        {
          "internalType": "uint256",
          "name": "tokenId",
          "type": "uint256"
        }
      ],
      "name": "getApproved",
      "outputs": [
        {
          "internalType": "address",
          "name": "",
          "type": "address"
        }
      ],
      "stateMutability": "view",
      "type": "function"
    },
    {
      "inputs": [],
      "name": "getContractOwner",
      "outputs": [
        {
          "internalType": "address",
          "name": "",
          "type": "address"
        }
      ],
      "stateMutability": "view",
      "type": "function"
    },
    {
      "inputs": [],
      "name": "getListingPrice",
      "outputs": [
        {
          "internalType": "uint256",
          "name": "",
          "type": "uint256"
        }
      ],
      "stateMutability": "view",
      "type": "function"
    },
    {
      "inputs": [
        {
          "internalType": "uint256",
          "name": "index",
          "type": "uint256"
        }
      ],
      "name": "getNftOwner",
      "outputs": [
        {
          "internalType": "address",
          "name": "",
          "type": "address"
        }
      ],
      "stateMutability": "view",
      "type": "function"
    },
    {
      "inputs": [
        {
          "internalType": "uint256",
          "name": "_tokenId",
          "type": "uint256"
        }
      ],
      "name": "getProject",
      "outputs": [
        {
          "components": [
            {
              "internalType": "uint256",
              "name": "tokenId",
              "type": "uint256"
            },
            {
              "internalType": "address payable",
              "name": "seller",
              "type": "address"
            },
            {
              "internalType": "address payable",
              "name": "owner",
              "type": "address"
            },
            {
              "internalType": "uint256",
              "name": "price",
              "type": "uint256"
            },
            {
              "internalType": "bool",
              "name": "sold",
              "type": "bool"
            },
            {
              "internalType": "bool",
              "name": "resale",
              "type": "bool"
            }
          ],
          "internalType": "struct FunderMarket.Project",
          "name": "",
          "type": "tuple"
        }
      ],
      "stateMutability": "view",
      "type": "function"
    },
    {
      "inputs": [],
      "name": "getProjectsLength",
      "outputs": [
        {
          "internalType": "uint256",
          "name": "",
          "type": "uint256"
        }
      ],
      "stateMutability": "view",
      "type": "function"
    },
    {
      "inputs": [
        {
          "internalType": "address",
          "name": "owner",
          "type": "address"
        },
        {
          "internalType": "address",
          "name": "operator",
          "type": "address"
        }
      ],
      "name": "isApprovedForAll",
      "outputs": [
        {
          "internalType": "bool",
          "name": "",
          "type": "bool"
        }
      ],
      "stateMutability": "view",
      "type": "function"
    },
    {
      "inputs": [],
      "name": "name",
      "outputs": [
        {
          "internalType": "string",
          "name": "",
          "type": "string"
        }
      ],
      "stateMutability": "view",
      "type": "function"
    },
    {
      "inputs": [
        {
          "internalType": "uint256",
          "name": "tokenId",
          "type": "uint256"
        }
      ],
      "name": "ownerOf",
      "outputs": [
        {
          "internalType": "address",
          "name": "",
          "type": "address"
        }
      ],
      "stateMutability": "view",
      "type": "function"
    },
    {
      "inputs": [
        {
          "internalType": "uint256",
          "name": "_tokenId",
          "type": "uint256"
        }
      ],
      "name": "pushProjectToMarketPlace",
      "outputs": [],
      "stateMutability": "payable",
      "type": "function"
    },
    {
      "inputs": [
        {
          "internalType": "address",
          "name": "from",
          "type": "address"
        },
        {
          "internalType": "address",
          "name": "to",
          "type": "address"
        },
        {
          "internalType": "uint256",
          "name": "tokenId",
          "type": "uint256"
        }
      ],
      "name": "safeTransferFrom",
      "outputs": [],
      "stateMutability": "nonpayable",
      "type": "function"
    },
    {
      "inputs": [
        {
          "internalType": "address",
          "name": "from",
          "type": "address"
        },
        {
          "internalType": "address",
          "name": "to",
          "type": "address"
        },
        {
          "internalType": "uint256",
          "name": "tokenId",
          "type": "uint256"
        },
        {
          "internalType": "bytes",
          "name": "_data",
          "type": "bytes"
        }
      ],
      "name": "safeTransferFrom",
      "outputs": [],
      "stateMutability": "nonpayable",
      "type": "function"
    },
    {
      "inputs": [
        {
          "internalType": "address",
          "name": "operator",
          "type": "address"
        },
        {
          "internalType": "bool",
          "name": "approved",
          "type": "bool"
        }
      ],
      "name": "setApprovalForAll",
      "outputs": [],
      "stateMutability": "nonpayable",
      "type": "function"
    },
    {
      "inputs": [
        {
          "internalType": "bytes4",
          "name": "interfaceId",
          "type": "bytes4"
        }
      ],
      "name": "supportsInterface",
      "outputs": [
        {
          "internalType": "bool",
          "name": "",
          "type": "bool"
        }
      ],
      "stateMutability": "view",
      "type": "function"
    },
    {
      "inputs": [],
      "name": "symbol",
      "outputs": [
        {
          "internalType": "string",
          "name": "",
          "type": "string"
        }
      ],
      "stateMutability": "view",
      "type": "function"
    },
    {
      "inputs": [
        {
          "internalType": "uint256",
          "name": "tokenId",
          "type": "uint256"
        }
      ],
      "name": "tokenURI",
      "outputs": [
        {
          "internalType": "string",
          "name": "",
          "type": "string"
        }
      ],
      "stateMutability": "view",
      "type": "function"
    },
    {
      "inputs": [
        {
          "internalType": "address",
          "name": "from",
          "type": "address"
        },
        {
          "internalType": "address",
          "name": "to",
          "type": "address"
        },
        {
          "internalType": "uint256",
          "name": "tokenId",
          "type": "uint256"
        }
      ],
      "name": "transferFrom",
      "outputs": [],
      "stateMutability": "nonpayable",
      "type": "function"
    },
    {
      "inputs": [
        {
          "internalType": "uint256",
          "name": "_listingPrice",
          "type": "uint256"
        }
      ],
      "name": "updateListingPrice",
      "outputs": [],
      "stateMutability": "payable",
      "type": "function"
    }
  ],
  "bytecode": "0x6080604052670de0b6b3a76400006008553480156200001d57600080fd5b506040518060400160405280601581526020017f416e696d616c73204f6e20547269616c2046756e6400000000000000000000008152506040518060400160405280600481526020017f414f5446000000000000000000000000000000000000000000000000000000008152508160009080519060200190620000a292919062000105565b508060019080519060200190620000bb92919062000105565b50505033600960006101000a81548173ffffffffffffffffffffffffffffffffffffffff021916908373ffffffffffffffffffffffffffffffffffffffff1602179055506200021a565b8280546200011390620001b5565b90600052602060002090601f01602090048101928262000137576000855562000183565b82601f106200015257805160ff191683800117855562000183565b8280016001018555821562000183579182015b828111156200018257825182559160200191906001019062000165565b5b50905062000192919062000196565b5090565b5b80821115620001b157600081600090555060010162000197565b5090565b60006002820490506001821680620001ce57607f821691505b60208210811415620001e557620001e4620001eb565b5b50919050565b7f4e487b7100000000000000000000000000000000000000000000000000000000600052602260045260246000fd5b613b11806200022a6000396000f3fe6080604052600436106101355760003560e01c80638ad2d5a7116100ab578063b88d4fde1161006f578063b88d4fde14610423578063c6bdc0a21461044c578063c87b56dd14610477578063e633f44f146104b4578063e985e9c5146104d0578063f0f3f2c81461050d57610135565b80638ad2d5a71461034657806391754a5d1461038357806395d89b41146103b3578063a22cb465146103de578063ae677aa31461040757610135565b806323b872dd116100fd57806323b872dd1461023357806342842e0e1461025c578063442890d5146102855780636352211e146102b05780636c563abe146102ed57806370a082311461030957610135565b806301ffc9a71461013a57806306fdde0314610177578063081812fc146101a2578063095ea7b3146101df57806312e8558514610208575b600080fd5b34801561014657600080fd5b50610161600480360381019061015c919061279c565b61054a565b60405161016e9190612d92565b60405180910390f35b34801561018357600080fd5b5061018c61062c565b6040516101999190612dad565b60405180910390f35b3480156101ae57600080fd5b506101c960048036038101906101c49190612842565b6106be565b6040516101d69190612ce6565b60405180910390f35b3480156101eb57600080fd5b5061020660048036038101906102019190612760565b610743565b005b34801561021457600080fd5b5061021d61085b565b60405161022a919061308a565b60405180910390f35b34801561023f57600080fd5b5061025a6004803603810190610255919061265a565b610865565b005b34801561026857600080fd5b50610283600480360381019061027e919061265a565b6108c5565b005b34801561029157600080fd5b5061029a6108e5565b6040516102a79190612ce6565b60405180910390f35b3480156102bc57600080fd5b506102d760048036038101906102d29190612842565b61090f565b6040516102e49190612ce6565b60405180910390f35b61030760048036038101906103029190612842565b6109c1565b005b34801561031557600080fd5b50610330600480360381019061032b91906125f5565b610c56565b60405161033d919061308a565b60405180910390f35b34801561035257600080fd5b5061036d60048036038101906103689190612842565b610d0e565b60405161037a9190612ce6565b60405180910390f35b61039d600480360381019061039891906127ee565b610d4e565b6040516103aa919061308a565b60405180910390f35b3480156103bf57600080fd5b506103c8610d90565b6040516103d59190612dad565b60405180910390f35b3480156103ea57600080fd5b5061040560048036038101906104009190612724565b610e22565b005b610421600480360381019061041c9190612842565b610e38565b005b34801561042f57600080fd5b5061044a600480360381019061044591906126a9565b610ed2565b005b34801561045857600080fd5b50610461610f34565b60405161046e919061308a565b60405180910390f35b34801561048357600080fd5b5061049e60048036038101906104999190612842565b610f45565b6040516104ab9190612dad565b60405180910390f35b6104ce60048036038101906104c99190612842565b611097565b005b3480156104dc57600080fd5b506104f760048036038101906104f2919061261e565b6112d9565b6040516105049190612d92565b60405180910390f35b34801561051957600080fd5b50610534600480360381019061052f9190612842565b61136d565b604051610541919061306f565b60405180910390f35b60007f80ac58cd000000000000000000000000000000000000000000000000000000007bffffffffffffffffffffffffffffffffffffffffffffffffffffffff1916827bffffffffffffffffffffffffffffffffffffffffffffffffffffffff1916148061061557507f5b5e139f000000000000000000000000000000000000000000000000000000007bffffffffffffffffffffffffffffffffffffffffffffffffffffffff1916827bffffffffffffffffffffffffffffffffffffffffffffffffffffffff1916145b80610625575061062482611490565b5b9050919050565b60606000805461063b906132f2565b80601f0160208091040260200160405190810160405280929190818152602001828054610667906132f2565b80156106b45780601f10610689576101008083540402835291602001916106b4565b820191906000526020600020905b81548152906001019060200180831161069757829003601f168201915b5050505050905090565b60006106c9826114fa565b610708576040517f08c379a00000000000000000000000000000000000000000000000000000000081526004016106ff90612f8f565b60405180910390fd5b6004600083815260200190815260200160002060009054906101000a900473ffffffffffffffffffffffffffffffffffffffff169050919050565b600061074e8261090f565b90508073ffffffffffffffffffffffffffffffffffffffff168373ffffffffffffffffffffffffffffffffffffffff1614156107bf576040517f08c379a00000000000000000000000000000000000000000000000000000000081526004016107b690612fcf565b60405180910390fd5b8073ffffffffffffffffffffffffffffffffffffffff166107de611566565b73ffffffffffffffffffffffffffffffffffffffff16148061080d575061080c81610807611566565b6112d9565b5b61084c576040517f08c379a000000000000000000000000000000000000000000000000000000000815260040161084390612e8f565b60405180910390fd5b610856838361156e565b505050565b6000600854905090565b610876610870611566565b82611627565b6108b5576040517f08c379a00000000000000000000000000000000000000000000000000000000081526004016108ac9061300f565b60405180910390fd5b6108c0838383611705565b505050565b6108e083838360405180602001604052806000815250610ed2565b505050565b6000600960009054906101000a900473ffffffffffffffffffffffffffffffffffffffff16905090565b6000806002600084815260200190815260200160002060009054906101000a900473ffffffffffffffffffffffffffffffffffffffff169050600073ffffffffffffffffffffffffffffffffffffffff168173ffffffffffffffffffffffffffffffffffffffff1614156109b8576040517f08c379a00000000000000000000000000000000000000000000000000000000081526004016109af90612ecf565b60405180910390fd5b80915050919050565b6000600a60008381526020019081526020016000206003015490506000600a600084815260200190815260200160002060010160009054906101000a900473ffffffffffffffffffffffffffffffffffffffff16905081341015610a5a576040517f08c379a0000000000000000000000000000000000000000000000000000000008152600401610a5190612f0f565b60405180910390fd5b610a9b600a600085815260200190815260200160002060020160009054906101000a900473ffffffffffffffffffffffffffffffffffffffff163385611705565b33600a600085815260200190815260200160002060020160006101000a81548173ffffffffffffffffffffffffffffffffffffffff021916908373ffffffffffffffffffffffffffffffffffffffff1602179055506001600a600085815260200190815260200160002060040160006101000a81548160ff0219169083151502179055506000600a600085815260200190815260200160002060010160006101000a81548173ffffffffffffffffffffffffffffffffffffffff021916908373ffffffffffffffffffffffffffffffffffffffff160217905550600a600084815260200190815260200160002060040160019054906101000a900460ff1615610c0a57600960009054906101000a900473ffffffffffffffffffffffffffffffffffffffff1673ffffffffffffffffffffffffffffffffffffffff166108fc6008549081150290604051600060405180830381858888f19350505050158015610c08573d6000803e3d6000fd5b505b8073ffffffffffffffffffffffffffffffffffffffff166108fc349081150290604051600060405180830381858888f19350505050158015610c50573d6000803e3d6000fd5b50505050565b60008073ffffffffffffffffffffffffffffffffffffffff168273ffffffffffffffffffffffffffffffffffffffff161415610cc7576040517f08c379a0000000000000000000000000000000000000000000000000000000008152600401610cbe90612eaf565b60405180910390fd5b600360008373ffffffffffffffffffffffffffffffffffffffff1673ffffffffffffffffffffffffffffffffffffffff168152602001908152602001600020549050919050565b6000600a600083815260200190815260200160002060020160009054906101000a900473ffffffffffffffffffffffffffffffffffffffff169050919050565b6000610d5a600761196c565b6000610d666007611982565b9050610d723382611990565b610d7c8185611b6a565b610d868184611bde565b8091505092915050565b606060018054610d9f906132f2565b80601f0160208091040260200160405190810160405280929190818152602001828054610dcb906132f2565b8015610e185780601f10610ded57610100808354040283529160200191610e18565b820191906000526020600020905b815481529060010190602001808311610dfb57829003601f168201915b5050505050905090565b610e34610e2d611566565b8383611dbb565b5050565b3373ffffffffffffffffffffffffffffffffffffffff16600960009054906101000a900473ffffffffffffffffffffffffffffffffffffffff1673ffffffffffffffffffffffffffffffffffffffff1614610ec8576040517f08c379a0000000000000000000000000000000000000000000000000000000008152600401610ebf9061302f565b60405180910390fd5b8060088190555050565b610ee3610edd611566565b83611627565b610f22576040517f08c379a0000000000000000000000000000000000000000000000000000000008152600401610f199061300f565b60405180910390fd5b610f2e84848484611f28565b50505050565b6000610f406007611982565b905090565b6060610f50826114fa565b610f8f576040517f08c379a0000000000000000000000000000000000000000000000000000000008152600401610f8690612f4f565b60405180910390fd5b6000600660008481526020019081526020016000208054610faf906132f2565b80601f0160208091040260200160405190810160405280929190818152602001828054610fdb906132f2565b80156110285780601f10610ffd57610100808354040283529160200191611028565b820191906000526020600020905b81548152906001019060200180831161100b57829003601f168201915b505050505090506000611039611f84565b905060008151141561104f578192505050611092565b60008251111561108457808260405160200161106c929190612cc2565b60405160208183030381529060405292505050611092565b61108d84611f9b565b925050505b919050565b3373ffffffffffffffffffffffffffffffffffffffff16600a600083815260200190815260200160002060020160009054906101000a900473ffffffffffffffffffffffffffffffffffffffff1673ffffffffffffffffffffffffffffffffffffffff161461113b576040517f08c379a000000000000000000000000000000000000000000000000000000000815260040161113290612f6f565b60405180910390fd5b600854341461117f576040517f08c379a000000000000000000000000000000000000000000000000000000000815260040161117690612fef565b60405180910390fd5b6111ac33600960009054906101000a900473ffffffffffffffffffffffffffffffffffffffff1683611705565b6000600a600083815260200190815260200160002060040160006101000a81548160ff02191690831515021790555033600a600083815260200190815260200160002060010160006101000a81548173ffffffffffffffffffffffffffffffffffffffff021916908373ffffffffffffffffffffffffffffffffffffffff160217905550600960009054906101000a900473ffffffffffffffffffffffffffffffffffffffff16600a600083815260200190815260200160002060020160006101000a81548173ffffffffffffffffffffffffffffffffffffffff021916908373ffffffffffffffffffffffffffffffffffffffff1602179055506001600a600083815260200190815260200160002060040160016101000a81548160ff02191690831515021790555050565b6000600560008473ffffffffffffffffffffffffffffffffffffffff1673ffffffffffffffffffffffffffffffffffffffff16815260200190815260200160002060008373ffffffffffffffffffffffffffffffffffffffff1673ffffffffffffffffffffffffffffffffffffffff16815260200190815260200160002060009054906101000a900460ff16905092915050565b6113756123b3565b600a60008381526020019081526020016000206040518060c0016040529081600082015481526020016001820160009054906101000a900473ffffffffffffffffffffffffffffffffffffffff1673ffffffffffffffffffffffffffffffffffffffff1673ffffffffffffffffffffffffffffffffffffffff1681526020016002820160009054906101000a900473ffffffffffffffffffffffffffffffffffffffff1673ffffffffffffffffffffffffffffffffffffffff1673ffffffffffffffffffffffffffffffffffffffff168152602001600382015481526020016004820160009054906101000a900460ff161515151581526020016004820160019054906101000a900460ff1615151515815250509050919050565b60007f01ffc9a7000000000000000000000000000000000000000000000000000000007bffffffffffffffffffffffffffffffffffffffffffffffffffffffff1916827bffffffffffffffffffffffffffffffffffffffffffffffffffffffff1916149050919050565b60008073ffffffffffffffffffffffffffffffffffffffff166002600084815260200190815260200160002060009054906101000a900473ffffffffffffffffffffffffffffffffffffffff1673ffffffffffffffffffffffffffffffffffffffff1614159050919050565b600033905090565b816004600083815260200190815260200160002060006101000a81548173ffffffffffffffffffffffffffffffffffffffff021916908373ffffffffffffffffffffffffffffffffffffffff160217905550808273ffffffffffffffffffffffffffffffffffffffff166115e18361090f565b73ffffffffffffffffffffffffffffffffffffffff167f8c5be1e5ebec7d5bd14f71427d1e84f3dd0314c0f7b2291e5b200ac8c7c3b92560405160405180910390a45050565b6000611632826114fa565b611671576040517f08c379a000000000000000000000000000000000000000000000000000000000815260040161166890612e6f565b60405180910390fd5b600061167c8361090f565b90508073ffffffffffffffffffffffffffffffffffffffff168473ffffffffffffffffffffffffffffffffffffffff1614806116be57506116bd81856112d9565b5b806116fc57508373ffffffffffffffffffffffffffffffffffffffff166116e4846106be565b73ffffffffffffffffffffffffffffffffffffffff16145b91505092915050565b8273ffffffffffffffffffffffffffffffffffffffff166117258261090f565b73ffffffffffffffffffffffffffffffffffffffff161461177b576040517f08c379a000000000000000000000000000000000000000000000000000000000815260040161177290612def565b60405180910390fd5b600073ffffffffffffffffffffffffffffffffffffffff168273ffffffffffffffffffffffffffffffffffffffff1614156117eb576040517f08c379a00000000000000000000000000000000000000000000000000000000081526004016117e290612e2f565b60405180910390fd5b6117f6838383612042565b61180160008261156e565b6001600360008573ffffffffffffffffffffffffffffffffffffffff1673ffffffffffffffffffffffffffffffffffffffff168152602001908152602001600020600082825461185191906131f6565b925050819055506001600360008473ffffffffffffffffffffffffffffffffffffffff1673ffffffffffffffffffffffffffffffffffffffff16815260200190815260200160002060008282546118a8919061316f565b92505081905550816002600083815260200190815260200160002060006101000a81548173ffffffffffffffffffffffffffffffffffffffff021916908373ffffffffffffffffffffffffffffffffffffffff160217905550808273ffffffffffffffffffffffffffffffffffffffff168473ffffffffffffffffffffffffffffffffffffffff167fddf252ad1be2c89b69c2b068fc378daa952ba7f163c4a11628f55a4df523b3ef60405160405180910390a4611967838383612047565b505050565b6001816000016000828254019250508190555050565b600081600001549050919050565b600073ffffffffffffffffffffffffffffffffffffffff168273ffffffffffffffffffffffffffffffffffffffff161415611a00576040517f08c379a00000000000000000000000000000000000000000000000000000000081526004016119f790612f2f565b60405180910390fd5b611a09816114fa565b15611a49576040517f08c379a0000000000000000000000000000000000000000000000000000000008152600401611a4090612e0f565b60405180910390fd5b611a5560008383612042565b6001600360008473ffffffffffffffffffffffffffffffffffffffff1673ffffffffffffffffffffffffffffffffffffffff1681526020019081526020016000206000828254611aa5919061316f565b92505081905550816002600083815260200190815260200160002060006101000a81548173ffffffffffffffffffffffffffffffffffffffff021916908373ffffffffffffffffffffffffffffffffffffffff160217905550808273ffffffffffffffffffffffffffffffffffffffff16600073ffffffffffffffffffffffffffffffffffffffff167fddf252ad1be2c89b69c2b068fc378daa952ba7f163c4a11628f55a4df523b3ef60405160405180910390a4611b6660008383612047565b5050565b611b73826114fa565b611bb2576040517f08c379a0000000000000000000000000000000000000000000000000000000008152600401611ba990612eef565b60405180910390fd5b80600660008481526020019081526020016000209080519060200190611bd9929190612419565b505050565b60008111611c21576040517f08c379a0000000000000000000000000000000000000000000000000000000008152600401611c189061304f565b60405180910390fd5b6040518060c001604052808381526020013373ffffffffffffffffffffffffffffffffffffffff1681526020013373ffffffffffffffffffffffffffffffffffffffff16815260200182815260200160001515815260200160001515815250600a60008481526020019081526020016000206000820151816000015560208201518160010160006101000a81548173ffffffffffffffffffffffffffffffffffffffff021916908373ffffffffffffffffffffffffffffffffffffffff16021790555060408201518160020160006101000a81548173ffffffffffffffffffffffffffffffffffffffff021916908373ffffffffffffffffffffffffffffffffffffffff1602179055506060820151816003015560808201518160040160006101000a81548160ff02191690831515021790555060a08201518160040160016101000a81548160ff021916908315150217905550905050817fe576e7f509d9e039865338a9943f8b03ba685279448378def96e233450d2f6ee3330846000604051611daf9493929190612d01565b60405180910390a25050565b8173ffffffffffffffffffffffffffffffffffffffff168373ffffffffffffffffffffffffffffffffffffffff161415611e2a576040517f08c379a0000000000000000000000000000000000000000000000000000000008152600401611e2190612e4f565b60405180910390fd5b80600560008573ffffffffffffffffffffffffffffffffffffffff1673ffffffffffffffffffffffffffffffffffffffff16815260200190815260200160002060008473ffffffffffffffffffffffffffffffffffffffff1673ffffffffffffffffffffffffffffffffffffffff16815260200190815260200160002060006101000a81548160ff0219169083151502179055508173ffffffffffffffffffffffffffffffffffffffff168373ffffffffffffffffffffffffffffffffffffffff167f17307eab39ab6107e8899845ad3d59bd9653f200f220920489ca2b5937696c3183604051611f1b9190612d92565b60405180910390a3505050565b611f33848484611705565b611f3f8484848461204c565b611f7e576040517f08c379a0000000000000000000000000000000000000000000000000000000008152600401611f7590612dcf565b60405180910390fd5b50505050565b606060405180602001604052806000815250905090565b6060611fa6826114fa565b611fe5576040517f08c379a0000000000000000000000000000000000000000000000000000000008152600401611fdc90612faf565b60405180910390fd5b6000611fef611f84565b9050600081511161200f576040518060200160405280600081525061203a565b80612019846121e3565b60405160200161202a929190612cc2565b6040516020818303038152906040525b915050919050565b505050565b505050565b600061206d8473ffffffffffffffffffffffffffffffffffffffff16612390565b156121d6578373ffffffffffffffffffffffffffffffffffffffff1663150b7a02612096611566565b8786866040518563ffffffff1660e01b81526004016120b89493929190612d46565b602060405180830381600087803b1580156120d257600080fd5b505af192505050801561210357506040513d601f19601f8201168201806040525081019061210091906127c5565b60015b612186573d8060008114612133576040519150601f19603f3d011682016040523d82523d6000602084013e612138565b606091505b5060008151141561217e576040517f08c379a000000000000000000000000000000000000000000000000000000000815260040161217590612dcf565b60405180910390fd5b805181602001fd5b63150b7a0260e01b7bffffffffffffffffffffffffffffffffffffffffffffffffffffffff1916817bffffffffffffffffffffffffffffffffffffffffffffffffffffffff1916149150506121db565b600190505b949350505050565b6060600082141561222b576040518060400160405280600181526020017f3000000000000000000000000000000000000000000000000000000000000000815250905061238b565b600082905060005b6000821461225d57808061224690613355565b915050600a8261225691906131c5565b9150612233565b60008167ffffffffffffffff81111561229f577f4e487b7100000000000000000000000000000000000000000000000000000000600052604160045260246000fd5b6040519080825280601f01601f1916602001820160405280156122d15781602001600182028036833780820191505090505b5090505b60008514612384576001826122ea91906131f6565b9150600a856122f9919061339e565b6030612305919061316f565b60f81b818381518110612341577f4e487b7100000000000000000000000000000000000000000000000000000000600052603260045260246000fd5b60200101907effffffffffffffffffffffffffffffffffffffffffffffffffffffffffffff1916908160001a905350600a8561237d91906131c5565b94506122d5565b8093505050505b919050565b6000808273ffffffffffffffffffffffffffffffffffffffff163b119050919050565b6040518060c0016040528060008152602001600073ffffffffffffffffffffffffffffffffffffffff168152602001600073ffffffffffffffffffffffffffffffffffffffff168152602001600081526020016000151581526020016000151581525090565b828054612425906132f2565b90600052602060002090601f016020900481019282612447576000855561248e565b82601f1061246057805160ff191683800117855561248e565b8280016001018555821561248e579182015b8281111561248d578251825591602001919060010190612472565b5b50905061249b919061249f565b5090565b5b808211156124b85760008160009055506001016124a0565b5090565b60006124cf6124ca846130ca565b6130a5565b9050828152602081018484840111156124e757600080fd5b6124f28482856132b0565b509392505050565b600061250d612508846130fb565b6130a5565b90508281526020810184848401111561252557600080fd5b6125308482856132b0565b509392505050565b60008135905061254781613a7f565b92915050565b60008135905061255c81613a96565b92915050565b60008135905061257181613aad565b92915050565b60008151905061258681613aad565b92915050565b600082601f83011261259d57600080fd5b81356125ad8482602086016124bc565b91505092915050565b600082601f8301126125c757600080fd5b81356125d78482602086016124fa565b91505092915050565b6000813590506125ef81613ac4565b92915050565b60006020828403121561260757600080fd5b600061261584828501612538565b91505092915050565b6000806040838503121561263157600080fd5b600061263f85828601612538565b925050602061265085828601612538565b9150509250929050565b60008060006060848603121561266f57600080fd5b600061267d86828701612538565b935050602061268e86828701612538565b925050604061269f868287016125e0565b9150509250925092565b600080600080608085870312156126bf57600080fd5b60006126cd87828801612538565b94505060206126de87828801612538565b93505060406126ef878288016125e0565b925050606085013567ffffffffffffffff81111561270c57600080fd5b6127188782880161258c565b91505092959194509250565b6000806040838503121561273757600080fd5b600061274585828601612538565b92505060206127568582860161254d565b9150509250929050565b6000806040838503121561277357600080fd5b600061278185828601612538565b9250506020612792858286016125e0565b9150509250929050565b6000602082840312156127ae57600080fd5b60006127bc84828501612562565b91505092915050565b6000602082840312156127d757600080fd5b60006127e584828501612577565b91505092915050565b6000806040838503121561280157600080fd5b600083013567ffffffffffffffff81111561281b57600080fd5b612827858286016125b6565b9250506020612838858286016125e0565b9150509250929050565b60006020828403121561285457600080fd5b6000612862848285016125e0565b91505092915050565b6128748161323c565b82525050565b6128838161322a565b82525050565b6128928161324e565b82525050565b6128a18161324e565b82525050565b60006128b28261312c565b6128bc8185613142565b93506128cc8185602086016132bf565b6128d58161348b565b840191505092915050565b60006128eb82613137565b6128f58185613153565b93506129058185602086016132bf565b61290e8161348b565b840191505092915050565b600061292482613137565b61292e8185613164565b935061293e8185602086016132bf565b80840191505092915050565b6000612957603283613153565b91506129628261349c565b604082019050919050565b600061297a602583613153565b9150612985826134eb565b604082019050919050565b600061299d601c83613153565b91506129a88261353a565b602082019050919050565b60006129c0602483613153565b91506129cb82613563565b604082019050919050565b60006129e3601983613153565b91506129ee826135b2565b602082019050919050565b6000612a06602c83613153565b9150612a11826135db565b604082019050919050565b6000612a29603883613153565b9150612a348261362a565b604082019050919050565b6000612a4c602a83613153565b9150612a5782613679565b604082019050919050565b6000612a6f602983613153565b9150612a7a826136c8565b604082019050919050565b6000612a92602e83613153565b9150612a9d82613717565b604082019050919050565b6000612ab5604083613153565b9150612ac082613766565b604082019050919050565b6000612ad8602083613153565b9150612ae3826137b5565b602082019050919050565b6000612afb603183613153565b9150612b06826137de565b604082019050919050565b6000612b1e602a83613153565b9150612b298261382d565b604082019050919050565b6000612b41602c83613153565b9150612b4c8261387c565b604082019050919050565b6000612b64602f83613153565b9150612b6f826138cb565b604082019050919050565b6000612b87602183613153565b9150612b928261391a565b604082019050919050565b6000612baa602483613153565b9150612bb582613969565b604082019050919050565b6000612bcd603183613153565b9150612bd8826139b8565b604082019050919050565b6000612bf0603083613153565b9150612bfb82613a07565b604082019050919050565b6000612c13601c83613153565b9150612c1e82613a56565b602082019050919050565b60c082016000820151612c3f6000850182612ca4565b506020820151612c52602085018261286b565b506040820151612c65604085018261286b565b506060820151612c786060850182612ca4565b506080820151612c8b6080850182612889565b5060a0820151612c9e60a0850182612889565b50505050565b612cad816132a6565b82525050565b612cbc816132a6565b82525050565b6000612cce8285612919565b9150612cda8284612919565b91508190509392505050565b6000602082019050612cfb600083018461287a565b92915050565b6000608082019050612d16600083018761287a565b612d23602083018661287a565b612d306040830185612cb3565b612d3d6060830184612898565b95945050505050565b6000608082019050612d5b600083018761287a565b612d68602083018661287a565b612d756040830185612cb3565b8181036060830152612d8781846128a7565b905095945050505050565b6000602082019050612da76000830184612898565b92915050565b60006020820190508181036000830152612dc781846128e0565b905092915050565b60006020820190508181036000830152612de88161294a565b9050919050565b60006020820190508181036000830152612e088161296d565b9050919050565b60006020820190508181036000830152612e2881612990565b9050919050565b60006020820190508181036000830152612e48816129b3565b9050919050565b60006020820190508181036000830152612e68816129d6565b9050919050565b60006020820190508181036000830152612e88816129f9565b9050919050565b60006020820190508181036000830152612ea881612a1c565b9050919050565b60006020820190508181036000830152612ec881612a3f565b9050919050565b60006020820190508181036000830152612ee881612a62565b9050919050565b60006020820190508181036000830152612f0881612a85565b9050919050565b60006020820190508181036000830152612f2881612aa8565b9050919050565b60006020820190508181036000830152612f4881612acb565b9050919050565b60006020820190508181036000830152612f6881612aee565b9050919050565b60006020820190508181036000830152612f8881612b11565b9050919050565b60006020820190508181036000830152612fa881612b34565b9050919050565b60006020820190508181036000830152612fc881612b57565b9050919050565b60006020820190508181036000830152612fe881612b7a565b9050919050565b6000602082019050818103600083015261300881612b9d565b9050919050565b6000602082019050818103600083015261302881612bc0565b9050919050565b6000602082019050818103600083015261304881612be3565b9050919050565b6000602082019050818103600083015261306881612c06565b9050919050565b600060c0820190506130846000830184612c29565b92915050565b600060208201905061309f6000830184612cb3565b92915050565b60006130af6130c0565b90506130bb8282613324565b919050565b6000604051905090565b600067ffffffffffffffff8211156130e5576130e461345c565b5b6130ee8261348b565b9050602081019050919050565b600067ffffffffffffffff8211156131165761311561345c565b5b61311f8261348b565b9050602081019050919050565b600081519050919050565b600081519050919050565b600082825260208201905092915050565b600082825260208201905092915050565b600081905092915050565b600061317a826132a6565b9150613185836132a6565b9250827fffffffffffffffffffffffffffffffffffffffffffffffffffffffffffffffff038211156131ba576131b96133cf565b5b828201905092915050565b60006131d0826132a6565b91506131db836132a6565b9250826131eb576131ea6133fe565b5b828204905092915050565b6000613201826132a6565b915061320c836132a6565b92508282101561321f5761321e6133cf565b5b828203905092915050565b600061323582613286565b9050919050565b600061324782613286565b9050919050565b60008115159050919050565b60007fffffffff0000000000000000000000000000000000000000000000000000000082169050919050565b600073ffffffffffffffffffffffffffffffffffffffff82169050919050565b6000819050919050565b82818337600083830152505050565b60005b838110156132dd5780820151818401526020810190506132c2565b838111156132ec576000848401525b50505050565b6000600282049050600182168061330a57607f821691505b6020821081141561331e5761331d61342d565b5b50919050565b61332d8261348b565b810181811067ffffffffffffffff8211171561334c5761334b61345c565b5b80604052505050565b6000613360826132a6565b91507fffffffffffffffffffffffffffffffffffffffffffffffffffffffffffffffff821415613393576133926133cf565b5b600182019050919050565b60006133a9826132a6565b91506133b4836132a6565b9250826133c4576133c36133fe565b5b828206905092915050565b7f4e487b7100000000000000000000000000000000000000000000000000000000600052601160045260246000fd5b7f4e487b7100000000000000000000000000000000000000000000000000000000600052601260045260246000fd5b7f4e487b7100000000000000000000000000000000000000000000000000000000600052602260045260246000fd5b7f4e487b7100000000000000000000000000000000000000000000000000000000600052604160045260246000fd5b6000601f19601f8301169050919050565b7f4552433732313a207472616e7366657220746f206e6f6e20455243373231526560008201527f63656976657220696d706c656d656e7465720000000000000000000000000000602082015250565b7f4552433732313a207472616e736665722066726f6d20696e636f72726563742060008201527f6f776e6572000000000000000000000000000000000000000000000000000000602082015250565b7f4552433732313a20746f6b656e20616c7265616479206d696e74656400000000600082015250565b7f4552433732313a207472616e7366657220746f20746865207a65726f2061646460008201527f7265737300000000000000000000000000000000000000000000000000000000602082015250565b7f4552433732313a20617070726f766520746f2063616c6c657200000000000000600082015250565b7f4552433732313a206f70657261746f7220717565727920666f72206e6f6e657860008201527f697374656e7420746f6b656e0000000000000000000000000000000000000000602082015250565b7f4552433732313a20617070726f76652063616c6c6572206973206e6f74206f7760008201527f6e6572206e6f7220617070726f76656420666f7220616c6c0000000000000000602082015250565b7f4552433732313a2062616c616e636520717565727920666f7220746865207a6560008201527f726f206164647265737300000000000000000000000000000000000000000000602082015250565b7f4552433732313a206f776e657220717565727920666f72206e6f6e657869737460008201527f656e7420746f6b656e0000000000000000000000000000000000000000000000602082015250565b7f45524337323155524953746f726167653a2055524920736574206f66206e6f6e60008201527f6578697374656e7420746f6b656e000000000000000000000000000000000000602082015250565b7f506c65617365207375626d6974207468652061736b696e67207072696365206960008201527f6e206f7264657220746f20636f6d706c65746520746865207075726368617365602082015250565b7f4552433732313a206d696e7420746f20746865207a65726f2061646472657373600082015250565b7f45524337323155524953746f726167653a2055524920717565727920666f722060008201527f6e6f6e6578697374656e7420746f6b656e000000000000000000000000000000602082015250565b7f4f6e6c79206974656d206f776e65722063616e20706572666f726d207468697360008201527f206f7065726174696f6e00000000000000000000000000000000000000000000602082015250565b7f4552433732313a20617070726f76656420717565727920666f72206e6f6e657860008201527f697374656e7420746f6b656e0000000000000000000000000000000000000000602082015250565b7f4552433732314d657461646174613a2055524920717565727920666f72206e6f60008201527f6e6578697374656e7420746f6b656e0000000000000000000000000000000000602082015250565b7f4552433732313a20617070726f76616c20746f2063757272656e74206f776e6560008201527f7200000000000000000000000000000000000000000000000000000000000000602082015250565b7f5072696365206d75737420626520657175616c20746f206c697374696e67207060008201527f7269636500000000000000000000000000000000000000000000000000000000602082015250565b7f4552433732313a207472616e736665722063616c6c6572206973206e6f74206f60008201527f776e6572206e6f7220617070726f766564000000000000000000000000000000602082015250565b7f4f6e6c79206d61726b6574706c616365206f776e65722063616e20757064617460008201527f65206c697374696e672070726963652e00000000000000000000000000000000602082015250565b7f5072696365206d757374206265206174206c6561737420312077656900000000600082015250565b613a888161322a565b8114613a9357600080fd5b50565b613a9f8161324e565b8114613aaa57600080fd5b50565b613ab68161325a565b8114613ac157600080fd5b50565b613acd816132a6565b8114613ad857600080fd5b5056fea2646970667358221220b01d3ab256fdb04e8736221dc66f9d3c025c36e687bfdf7e62b06bee69d265d764736f6c63430008040033",
  "linkReferences": {},
  "deployedLinkReferences": {}
}